:100000000C9428010C9459010C9459010C94590139
:100010000C9459010C9459010C9459010C945901F8
:100020000C9459010C9459010C9459010C945901E8
:100030000C9459010C9459010C9459010C945901D8
:100040000C9459010C9459010C9459010C945901C8
:100050000C9459010C9459010C9459010C9491047D
:100060000C9459010C945B040C9431040C945901C8
:100070000C9459010C9459010C9459010C94590198
:100080000C9459010C9459010C9459010C94590188
:100090000C9459010C9459010C9459010C94590178
:1000A0000C9459010C9459010C9459010C94590168
:1000B0000C9459010C9459010C9459010C94590158
:1000C0000C9459010C9459010C9459010C94590148
:1000D0000C9459010C9459010C9459010C94590138
:1000E0000C9459010C94DE020C947A010C94FD02DC
:1000F0000C9404030C94F9020C9430030C945D02EC
:100100000C941C030C940E030C9422030C943403E3
:100110000C94CA010C9414030C9418030C94B601AB
:100120000C947B070C94F5020C940A030C940103C5
:100130000C94D8010C9410020C942A030C94E30242
:100140000C94A7010C94260300000A0B02090C0D65
:100150000E0807030401000000000000000000007A
:10016000000000000000000000000000000000008F
:10017000000000001211100000000000000000004C
:10018000000000000000000000000000000000006F
:100190002200250028002B002E003100340002012F
:1001A0000000050108010B010000210024002700C8
:1001B0002A002D0030003300010100000401070176
:1001C0000A010505050507050808080802020202DC
:1001D0000A0A0808040404040101010101010101E3
:1001E0000303030303030303040707070C0C0C0CAE
:1001F0000C0C0C0C02020202060606060606060697
:100200000B0B0B0B0B0B0B0B010210202008081023
:100210002040102040800201020108040201010276
:10022000040810204080804020100804020180044F
:1002300002018040201008040201080402010102AA
:1002400004081020408001020408102040807B0731
:1002500011241FBECFEFD1E2DEBFCDBF00E00CBF47
:1002600012E0A0E0B2E0E4E6FFE000E00BBF02C075
:1002700007900D92AE33B107D9F723E0AEE3B2E0B9
:1002800001C01D92A732B207E1F711E0C8E2D1E048
:1002900000E006C021970109802FFE010E94A807F7
:1002A000C732D10780E00807A9F70E94DB040C944D
:1002B000B0070C94000090E0FC01E85FFD4F249132
:1002C0008E539E4FFC018491882399F090E0880F13
:1002D000991FFC01E855FE4FA591B491FC01E2572E
:1002E000FE4F859194918FB7F894EC91E22BEC93AB
:1002F0008FBF0895AF92BF92CF92DF92EF92FF929D
:100300000F931F93CF93DF936C017B018B01040F3D
:10031000151FEB015E01AE18BF08C017D10759F0D9
:100320006991D601ED91FC910190F081E02DC6011B
:100330001995892B79F7C501DF91CF911F910F9105
:10034000FF90EF90DF90CF90BF90AF900895FC01A9
:10035000538D448D252F30E0842F90E0821B930B2A
:10036000541710F0CF96089501970895FC01918DD0
:10037000828D981761F0A28DAE0FBF2FB11D5D96D3
:100380008C91928D9F5F9F73928F90E008958FEF75
:100390009FEF0895FC01918D828D981731F0828D29
:1003A000E80FF11D858D90E008958FEF9FEF089580
:1003B000FC01918D228D892F90E0805C9F4F821BE4
:1003C00091098F73992708958AE892E00E94D801D5
:1003D00021E0892B09F420E0822F0895FC01A48DEF
:1003E000A80FB92FB11DA35ABF4F2C91848D90E057
:1003F00001968F739927848FA689B7892C93A0893A
:10040000B1898C91837080648C93938D848D9813C3
:1004100006C00288F389E02D80818F7D8083089556
:10042000EF92FF920F931F93CF93DF93EC0181E044
:10043000888F9B8D8C8D98131AC0E889F9898081EB
:1004400085FF15C09FB7F894EE89FF896083E8891E
:10045000F98980818370806480839FBF81E090E010
:10046000DF91CF911F910F91FF90EF900895F62E9D
:100470000B8D10E00F5F1F4F0F731127E02E8C8D37
:100480008E110CC00FB607FCFACFE889F98980817C
:1004900085FFF5CFCE010E94EE01F1CFEB8DEC0F81
:1004A000FD2FF11DE35AFF4FF0829FB7F8940B8F99
:1004B000EA89FB8980818062CFCFCF93DF93EC0103
:1004C000888D8823B9F0AA89BB89E889F9898C913C
:1004D00085FD03C0808186FD0DC00FB607FCF7CFF8
:1004E0008C9185FFF2CF808185FFEDCFCE010E94F8
:1004F000EE01E9CFDF91CF91089580E090E0892B64
:1005000029F00E94E40181110E94000080E090E047
:10051000892B49F080E090E0892B29F00E940000AF
:1005200081110E94000080E090E0892B49F080E07A
:1005300090E0892B29F00E94000081110E940000A8
:1005400080E090E0892B49F080E090E0892B29F051
:100550000E94000081110C9400000895282F30E0C3
:10056000F901E85BFE4F9491F901E85FFD4F44917A
:100570002E533E4FF9012491222309F435C09923CB
:1005800011F191509231F8F4E92FF0E08827E4530B
:10059000FD4F8F4F0C94A807FD020103DE02F50208
:1005A000F902E30204030A030E03140318031C03F5
:1005B00022032603E3022A033003340380918000E0
:1005C0008F7780938000E22FF0E0EE0FFF1FE2575D
:1005D000FE4FA591B4918FB7F894EC91611148C08A
:1005E00040954E234C938FBF0895809180008F7D5E
:1005F000E8CF80918000877FE4CF84B58F7784BD7A
:10060000E2CF84B58F7DFBCF8091B0008F77809350
:10061000B000D9CF8091B0008F7DF9CF809190004C
:100620008F7780939000CFCF809190008F7DF9CF0E
:1006300080919000877FF5CF8091A0008F77809385
:10064000A000C1CF8091A0008F7DF9CF8091A00044
:10065000877FF5CF809120018F7780932001B3CFE2
:10066000809120018F7DF9CF80912001877FF5CF88
:100670004E2BB8CF3FB7F89480914302909144023B
:10068000A0914502B091460226B5A89B05C02F3F18
:1006900019F00196A11DB11D3FBFBA2FA92F982FA8
:1006A0008827BC01CD01620F711D811D911D42E0A3
:1006B000660F771F881F991F4A95D1F708958F926B
:1006C0009F92AF92BF92CF92DF92EF92FF924B0137
:1006D0005C010E943A036B017C010E943A036C1991
:1006E0007D098E099F09683E734081059105A8F335
:1006F00021E0821A9108A108B10888EEC80E83E0B3
:10070000D81EE11CF11C81149104A104B10429F745
:10071000FF90EF90DF90CF90BF90AF909F908F9021
:100720000895CF93C82F682F62956F7080E36A3069
:1007300008F087E3680F8AE892E00E941002CF7009
:1007400060E3CA300CF067E36C0F8AE892E0CF9167
:100750000C9410028AE892E00E94D801892B39F4A7
:1007600061E070E080E090E00E945F03F3CF8AE8F0
:1007700092E00E94B60190ED980F9A3028F4082E6E
:10078000000C990BC09708959FEB980F963028F4B2
:10079000082E000C990BC79708958FEF9FEF0895CF
:1007A000CF930E94AA0397FF04C08FEF9FEFCF91D2
:1007B0000895C82FC295C07F0E94AA0397FDF5CF68
:1007C0008C2B90E0F4CF8FEF80930A0180930B0184
:1007D000089560E089E20E94AE0260E088E20E9433
:1007E000AE0283E290E00197F1F761E088E20E94B7
:1007F000AE0261E089E20C94AE0210920A018FEF22
:1008000080930B012AE030E063E270E0CB010197B6
:10081000F1F780910901841721F021503109482F07
:10082000A9F7089542E050E062E172E08AE892E0C0
:100830000C947A01CF93DF93FC0101900020E9F73B
:100840003197AF01481B590BBC018AE892E00E9426
:100850007A01EC010E9412048C0F9D1FDF91CF9151
:1008600008951F920F920FB60F9211240BB60F929C
:100870002F933F934F935F936F937F938F939F93A8
:10088000AF93BF93EF93FF938AE892E00E94EE014B
:10089000FF91EF91BF91AF919F918F917F916F9158
:1008A0005F914F913F912F910F900BBE0F900FBE14
:1008B0000F901F9018951F920F920FB60F92112450
:1008C0000BB60F922F938F939F93EF93FF93E0912B
:1008D0009A02F0919B028081E091A002F091A10226
:1008E00082FD1DC090818091A3028F5F8F73209144
:1008F000A402821741F0E091A302F0E0E657FD4F19
:10090000958F8093A302FF91EF919F918F912F91EB
:100910000F900BBE0F900FBE0F901F901895808107
:10092000F2CF1F920F920FB60F9211242F933F9385
:100930008F939F93AF93BF9380913F02909140021A
:10094000A0914102B091420230913E0223E0230F78
:100950002D3758F50196A11DB11D20933E028093BD
:100960003F0290934002A0934102B09342028091D3
:10097000430290914402A0914502B0914602019633
:10098000A11DB11D8093430290934402A0934502A0
:10099000B0934602BF91AF919F918F913F912F915C
:1009A0000F900FBE0F901F90189526E8230F029608
:1009B000A11DB11DD2CF789484B5826084BD84B569
:1009C000816084BD85B5826085BD85B5816085BD4A
:1009D00080916E00816080936E0010928100809102
:1009E000810082608093810080918100816080938A
:1009F0008100809180008160809380008091B100AF
:100A000084608093B1008091B00081608093B000D9
:100A1000809191008260809391008091910081602B
:100A200080939100809190008160809390008091EC
:100A3000A10082608093A1008091A10081608093D9
:100A4000A1008091A00081608093A000809121018D
:100A50008260809321018091210181608093210136
:100A60008091200181608093200180917A008460D0
:100A700080937A0080917A00826080937A008091DE
:100A80007A00816080937A0080917A0080688093F8
:100A90007A001092C100E0919A02F0919B0282E0EC
:100AA0008083E0919602F09197021082E091980283
:100AB000F091990280E180831092A202E0919E025F
:100AC000F0919F0286E08083E0919C02F0919D026C
:100AD000808180618083E0919C02F0919D02808101
:100AE00088608083E0919C02F0919D028081806803
:100AF0008083E0919C02F0919D0280818F7D8083B4
:100B000085E30E945B0160E085E30E94AE0261E044
:100B100088E20E94AE0261E089E20E94AE0261E0DA
:100B200087E20E94AE0288E20E945B0189E20E9495
:100B30005B0187E20E945B0110920A018FEF8093B4
:100B40000B0187B988B98FE781B982B918B812B893
:100B500038EE432E33E0532E7724739448E8A42EC6
:100B600043E1B42EC5E5DAEA5AE2652E60E2262EAC
:100B700010918902612F85E30E94AE028091870265
:100B800090918802009761F1019790938802809379
:100B900087028AE892E00E94D801892B09F422C1D9
:100BA0008AE892E00E94B601823509F4DAC08735FE
:100BB00019F1803509F099C1B0928802A09287029C
:100BC000709289028AE892E00E94D801892B09F08C
:100BD00012C161E070E080E090E00E945F03F2CF1C
:100BE000509288024092870217251093890285E16E
:100BF00092E00E941A04CDCFB0928802A0928702A0
:100C0000709289020E94D0036C018F3F980709F40B
:100C1000A3C030E4381708F49FC00E94D0038C01B1
:100C2000019609F499C00E94D0038F3F980709F4F8
:100C300093C09C013327E82FF02F7F01DD240C0D9A
:100C40001D2D111D020F131F27E4822E22E0922E6C
:100C5000C401875492408C159D0564F40E94D00312
:100C60008F3F980709F478C0F40181934F01080F72
:100C7000111DEECF0E94D0038F3F980709F46CC07E
:100C80000195081369C061E087E20E94AE0261E04D
:100C900089E20E94AE0261E088E20E94AE0297E41F
:100CA000892E92E0992E8701C401875492408C15B9
:100CB0009D05D4F408B912B9F40131904F0161E0F7
:100CC00087E20E94AE0261E089E20E94AE0261E02A
:100CD00088E20E94AE020E94E30330920B010E9460
:100CE000E9030F5F1F4FE0CF10920A01FFEFF0936F
:100CF0000B0160E089E20E94AE0261E088E20E949E
:100D0000AE0260E087E20E94AE020AE010E061E01D
:100D100070E080E090E00E945F030E94FD03831575
:100D200019F00150110999F707E412E0C80187543E
:100D300092408C159D050CF0A8C0E8B8F2B8F801F7
:100D400091908F010E94FD03FFEFEF1AFF0A9816A2
:100D500069F38FE292E002C08AE192E00E941A04F5
:100D600041C0B0928802A0928702709289020E94CC
:100D7000D0038C018F3F980779F3813468F70E9484
:100D8000D0037C01019641F30E94D0038F3F980766
:100D900019F3E82FFE2D6F0160E089E20E94AE0298
:100DA00060E087E20E94AE021127ED2CFF24E00EE6
:100DB000F11EEC0CF11C0C0D1D1D0C151D0561F038
:100DC000C8B8D2B80E94FD03E80EF11C0E9491033E
:100DD000FFEFCF1ADF0AF1CF8E2D81950E9491038C
:100DE0000E94120461E070E080E090E00E945F03E6
:100DF0000E947D02BDCE8AE892E00E94B601803357
:100E000009F046C061E087E20E94AE0261E089E23B
:100E10000E94AE0261E088E20E94AE026AE070E0E9
:100E200080E090E00E945F03C8B9C2B90E94E3036A
:100E3000D0930B010E94E903D8B962B80E94E30382
:100E4000C0930B010E94E903C8B9C2B90E94E30331
:100E500020E820930B010E94E903C8B9C2B90E949F
:100E6000E303D0930B010E94E903D8B962B80E9452
:100E7000E303C0930B010E94E903C8B9C2B90E9401
:100E8000E30320920B010E94E9038AE292E066CF1D
:100E9000813309F061CF61E087E20E94AE0261E038
:100EA00089E20E94AE0261E088E20E94AE026AE03E
:100EB00070E080E090E00E945F03C8B9C2B90E9470
:100EC000E303D0930B010E94E903D8B962B80E94F2
:100ED000E303C0930B010E94E903C8B9C2B90E94A1
:100EE000E30330EA30930B01CECF682F8AE892E01B
:100EF0000E94100277CFEAE8F2E01382128288EEB5
:100F000093E0A0E0B0E084839583A683B78384E078
:100F100092E09183808385EC90E09587848784ECD0
:100F200090E09787868780EC90E0918B808B81ECB6
:100F300090E0938B828B82EC90E0958B848B86EC97
:100F400090E0978B868B118E128E138E148E0895DF
:100F5000EE0FFF1F881F8BBF0790F691E02D1994AD
:040F6000F894FFCF33
:100F64000000000010027A01A7015D02D801B60159
:100F7400CA010D0A0045507631000D0A436F6D6DAC
:100F8400616E64206572726F72000D0A4F4B000D22
:0E0F94000A5772697465206572726F720000F0
:00000001FF
